:020000040800F2
:1000000008040120DD010008E5010008E7010008FF
:10001000E9010008EB010008ED0100080000000004
:10002000000000000000000000000000EF010008D8
:10003000F101000800000000F3010008F5010008CC
:10004000F7010008F7010008F7010008F7010008B0
:10005000F7010008F7010008F7010008F7010008A0
:10006000F7010008F7010008F7010008F701000890
:10007000F7010008F7010008F7010008F701000880
:10008000F7010008F7010008F7010008F701000870
:10009000F7010008F7010008F7010008F701000860
:1000A000F7010008F7010008F7010008F701000850
:1000B000F7010008F7010008F7010008F701000840
:1000C000F7010008F7010008F7010008F701000830
:1000D000F7010008F7010008F7010008F701000820
:1000E000F7010008F7010008F7010008F701000810
:1000F000F7010008F7010008F7010008F701000800
:10010000F7010008F7010008F7010008F7010008EF
:10011000F7010008F7010008F7010008F7010008DF
:10012000F7010008F7010008F7010008F7010008CF
:10013000F7010008F7010008F7010008F7010008BF
:10014000F7010008F7010008F7010008F7010008AF
:10015000F7010008F7010008F7010008F70100089F
:10016000F7010008F7010008F7010008F70100088F
:10017000F7010008F7010008F7010008000000007F
:10018000F7010008F7010008F7010008F70100086F
:10019000F7010008F7010008F7010008F70100085F
:1001A000F7010008F7010008F7010008F70100084F
:1001B000F7010008F7010008F7010008F70100083F
:1001C000F7010008F7010008DFF80CD000F018F87C
:1001D00000480047A902000808040120064880479B
:1001E00006480047FEE7FEE7FEE7FEE7FEE7FEE71C
:1001F000FEE7FEE7FEE7FEE725020008C90100086A
:10020000064C074D06E0E06840F0010394E8070063
:1002100098471034AC42F6D3FFF7DAFF5C040008CD
:100220007C0400081448006840F47000124908601B
:100230001248006840F001001049086000200F4992
:10024000083108600D4800680D4908400B490860F6
:100250000C48091D0860081F006820F48020091F51
:100260000860002005490C3108604FF00060024929
:10027000803908607047000088ED00E000380240D7
:10028000FFFFF6FE1030002402E008C8121F08C16C
:10029000002AFAD170477047002001E001C1121F07
:1002A000002AFBD170470000062065490860012044
:1002B0006349103108600020624908606248634960
:1002C000086062490C31086000206049091D08601F
:1002D0005D48091D08600E20C906C8625C48886236
:1002E000ADE058481030006800F40050B0F5005FF1
:1002F0000ED15848006810B901208107486155485F
:100300000068401C5349086001208107086010E024
:100310004C481030006800F4005050B900204FF0F5
:10032000804108600846406A4B49086000204949FE
:1003300008604FF08040406A20B980204349143162
:1003400008607CE04FF08040406A022801D901201B
:1003500000E000204FF08041496A042901D20121C8
:1003600000E00021084020B1012038491431086024
:1003700065E04FF08040406A042801D9012000E088
:1003800000204FF08041496A062901D2012100E096
:100390000021084028B14FF480402C4914310860F6
:1003A0004DE04FF08040406A062801D9012000E06E
:1003B00000204FF08041496A082901D2012100E064
:1003C0000021084068B121481430006840F0010065
:1003D0001E49143108600846006840F480400860F7
:1003E0002DE04FF08040406A082801D9012000E04C
:1003F00000204FF08041496A0A2901D2012100E022
:100400000021084068B111481430006840F4804071
:100410000E49143108600846006840F0800008600A
:100420000DE04FF08040406A0C2808D9074814308E
:10043000006844F28101084304491431086050E720
:100440003038024000080240014000100004024021
:10045000FF23F40000000120040001207C040008B8
:100460000000012008000000880200088404000841
:1004700008000120000400009802000800000000AD
:040480000000000078
:04000005080001DD11
:00000001FF
